{
  "_format": "hh-sol-artifact-1",
  "contractName": "DiamondTracking",
  "sourceName": "contracts/DiamondTracking.sol",
  "abi": [
    {
      "inputs": [
        {
          "internalType": "uint256",
          "name": "",
          "type": "uint256"
        }
      ],
      "name": "allDiamonds",
      "outputs": [
        {
          "internalType": "string",
          "name": "id",
          "type": "string"
        },
        {
          "internalType": "uint256",
          "name": "size",
          "type": "uint256"
        },
        {
          "internalType": "uint256",
          "name": "weight",
          "type": "uint256"
        }
      ],
      "stateMutability": "view",
      "type": "function"
    },
    {
      "inputs": [
        {
          "internalType": "string",
          "name": "_location",
          "type": "string"
        }
      ],
      "name": "setSenderValues",
      "outputs": [],
      "stateMutability": "nonpayable",
      "type": "function"
    },
    {
      "inputs": [
        {
          "internalType": "uint256",
          "name": "_size",
          "type": "uint256"
        },
        {
          "internalType": "string",
          "name": "_id",
          "type": "string"
        },
        {
          "internalType": "uint256",
          "name": "_weight",
          "type": "uint256"
        }
      ],
      "name": "setValues",
      "outputs": [],
      "stateMutability": "nonpayable",
      "type": "function"
    },
    {
      "inputs": [],
      "name": "showSender",
      "outputs": [
        {
          "components": [
            {
              "internalType": "address",
              "name": "from",
              "type": "address"
            },
            {
              "internalType": "string",
              "name": "location",
              "type": "string"
            }
          ],
          "internalType": "struct DiamondTracking.Sender",
          "name": "",
          "type": "tuple"
        }
      ],
      "stateMutability": "view",
      "type": "function"
    }
  ],
  "bytecode": "0x608060405234801561001057600080fd5b50610b18806100206000396000f3fe608060405234801561001057600080fd5b506004361061004c5760003560e01c80631e570dd414610051578063773859fd14610083578063a4d64ff41461009f578063d92e4983146100bd575b600080fd5b61006b60048036038101906100669190610423565b6100d9565b60405161007a939291906104ef565b60405180910390f35b61009d60048036038101906100989190610662565b61019b565b005b6100a7610218565b6040516100b49190610799565b60405180910390f35b6100d760048036038101906100d291906107bb565b61031a565b005b600281815481106100e957600080fd5b906000526020600020906003020160009150905080600001805461010c90610833565b80601f016020809104026020016040519081016040528092919081815260200182805461013890610833565b80156101855780601f1061015a57610100808354040283529160200191610185565b820191906000526020600020905b81548152906001019060200180831161016857829003601f168201915b5050505050908060010154908060020154905083565b60006040518060600160405280848152602001858152602001838152509050600281908060018154018082558091505060019003906000526020600020906003020160009091909190915060008201518160000190816101fb9190610a10565b506020820151816001015560408201518160020155505050505050565b6102206103a9565b60006040518060400160405290816000820160009054906101000a900473ffffffffffffffffffffffffffffffffffffffff1673ffffffffffffffffffffffffffffffffffffffff1673ffffffffffffffffffffffffffffffffffffffff16815260200160018201805461029390610833565b80601f01602080910402602001604051908101604052809291908181526020018280546102bf90610833565b801561030c5780601f106102e15761010080835404028352916020019161030c565b820191906000526020600020905b8154815290600101906020018083116102ef57829003601f168201915b505050505081525050905090565b60405180604001604052803373ffffffffffffffffffffffffffffffffffffffff168152602001828152506000808201518160000160006101000a81548173ffffffffffffffffffffffffffffffffffffffff021916908373ffffffffffffffffffffffffffffffffffffffff16021790555060208201518160010190816103a29190610a10565b5090505050565b6040518060400160405280600073ffffffffffffffffffffffffffffffffffffffff168152602001606081525090565b6000604051905090565b600080fd5b600080fd5b6000819050919050565b610400816103ed565b811461040b57600080fd5b50565b60008135905061041d816103f7565b92915050565b600060208284031215610439576104386103e3565b5b60006104478482850161040e565b91505092915050565b600081519050919050565b600082825260208201905092915050565b60005b8381101561048a57808201518184015260208101905061046f565b60008484015250505050565b6000601f19601f8301169050919050565b60006104b282610450565b6104bc818561045b565b93506104cc81856020860161046c565b6104d581610496565b840191505092915050565b6104e9816103ed565b82525050565b6000606082019050818103600083015261050981866104a7565b905061051860208301856104e0565b61052560408301846104e0565b949350505050565b600080fd5b600080fd5b7f4e487b7100000000000000000000000000000000000000000000000000000000600052604160045260246000fd5b61056f82610496565b810181811067ffffffffffffffff8211171561058e5761058d610537565b5b80604052505050565b60006105a16103d9565b90506105ad8282610566565b919050565b600067ffffffffffffffff8211156105cd576105cc610537565b5b6105d682610496565b9050602081019050919050565b82818337600083830152505050565b6000610605610600846105b2565b610597565b90508281526020810184848401111561062157610620610532565b5b61062c8482856105e3565b509392505050565b600082601f8301126106495761064861052d565b5b81356106598482602086016105f2565b91505092915050565b60008060006060848603121561067b5761067a6103e3565b5b60006106898682870161040e565b935050602084013567ffffffffffffffff8111156106aa576106a96103e8565b5b6106b686828701610634565b92505060406106c78682870161040e565b9150509250925092565b600073ffffffffffffffffffffffffffffffffffffffff82169050919050565b60006106fc826106d1565b9050919050565b61070c816106f1565b82525050565b600082825260208201905092915050565b600061072e82610450565b6107388185610712565b935061074881856020860161046c565b61075181610496565b840191505092915050565b60006040830160008301516107746000860182610703565b506020830151848203602086015261078c8282610723565b9150508091505092915050565b600060208201905081810360008301526107b3818461075c565b905092915050565b6000602082840312156107d1576107d06103e3565b5b600082013567ffffffffffffffff8111156107ef576107ee6103e8565b5b6107fb84828501610634565b91505092915050565b7f4e487b7100000000000000000000000000000000000000000000000000000000600052602260045260246000fd5b6000600282049050600182168061084b57607f821691505b60208210810361085e5761085d610804565b5b50919050565b60008190508160005260206000209050919050565b60006020601f8301049050919050565b600082821b905092915050565b6000600883026108c67fffffffffffffffffffffffffffffffffffffffffffffffffffffffffffffffff82610889565b6108d08683610889565b95508019841693508086168417925050509392505050565b6000819050919050565b600061090d610908610903846103ed565b6108e8565b6103ed565b9050919050565b6000819050919050565b610927836108f2565b61093b61093382610914565b848454610896565b825550505050565b600090565b610950610943565b61095b81848461091e565b505050565b5b8181101561097f57610974600082610948565b600181019050610961565b5050565b601f8211156109c45761099581610864565b61099e84610879565b810160208510156109ad578190505b6109c16109b985610879565b830182610960565b50505b505050565b600082821c905092915050565b60006109e7600019846008026109c9565b1980831691505092915050565b6000610a0083836109d6565b9150826002028217905092915050565b610a1982610450565b67ffffffffffffffff811115610a3257610a31610537565b5b610a3c8254610833565b610a47828285610983565b600060209050601f831160018114610a7a5760008415610a68578287015190505b610a7285826109f4565b865550610ada565b601f198416610a8886610864565b60005b82811015610ab057848901518255600182019150602085019450602081019050610a8b565b86831015610acd5784890151610ac9601f8916826109d6565b8355505b6001600288020188555050505b50505050505056fea2646970667358221220b324bfb075b19eab6072cc92aa054f720d570512effd64fadb6faa368593105a64736f6c63430008180033",
  "linkReferences": {},
  "deployedLinkReferences": {}
}